:0400000080314328E0
:100008007E1480312100921E19282000921E192882
:1000180023006D186F19172822008D1723006F15FC
:100028000230C600C700200092120B1D212816308E
:10003800200095000B112300ED152000111C3A2813
:100048008731B62780318731EF27803123006E1E34
:10005800302823006E17322823006E1320008E1CD0
:10006800382823006E163A2823006E120B1C4128EC
:1000780023006C162700930196017E100900883131
:1000880059282300C501B5012400CE01CF01C801BC
:100098002300C1012D088600043087018113AD06B5
:1000A8002D08860004308113AD06440886008113AC
:1000B800A201A301A4012400A201A301A4016C20B0
:1000C80080310330E7268031E50181238031A12981
:1000D8002000500E890C0339031D080051088400C4
:1000E8000D3004020318080090310435003E8200E8
:1000F800080023000830A217B6000800A6283129F6
:10010800C8302300A0000130A1002214A301A30AD3
:10011800A2170800F5281C2A54086E3E2300A000E8
:10012800023088282300A217200054086E3E86005B
:10013800023087005208810008000230E000F326F0
:100148008031812B803020005006031D0800C0300C
:100158002300A200E828B7302300A0009830A100AF
:100168001230A300A40108005208031DD228520827
:10017800F0002E301F2780319830F9268031F100A9
:100188002008F000023E12278031A3002108F10068
:100198002008F000033E1227A40008002300A20153
:1001A8000800033052020318D2285208F000283001
:1001B8001F2780319830F9262008840021088500FF
:1001C8000008A300A401080020005308013A0319FD
:1001D800AF28033A0319B828013A0319D528D228B9
:1001E80008002000D801D9011C292300A2172400E7
:1001F8004B0B27292000D81427292300A2172729C9
:100208002300A2172000D41B0C29012780310E29B6
:100218000627803187000108F00086008701811FCA
:10022800272970088600011D27290130D8002729B1
:1002380050081F390319F928013A03190129033A0B
:100248000319042927292300A21F08005830A000F9
:100258000230A1012214A300080023000E30A217C7
:10026800FB009930FA00FC017A0886007B088700B9
:100278008101FA0A0319FB0A0230FC0A7C02031CFA
:1002880038292030F0003030F1013B2780318A21B5
:1002980080313D000E17FD017D082F3E860002309B
:1002A800870081017D08323E860003308101FD0A06
:1002B8007D02031C50296E30F0000230F10002303C
:1002C8003B2780318A2180313D000E1328302300DE
:1002D800AD002030C300C400200052082300C8002D
:1002E8004808031D7A291030B60008002000C830DD
:1002F800E001E00AE101E2000130E300E401E40A80
:10030800E501812320302300B60008007108F700BA
:100318007008F6000130F4020030F53B740F97299D
:10032800750A03190800760886007708870072089E
:100338008100F60A0319F70A8E293D000E122300E0
:10034800A21BC3292400A21FB52902302300C10023
:1003580024004F08031DB129E1212400D101D00157
:1003680008002300440A8600A92680310C30810049
:100378004408860081172D0886000430D82E2000F6
:10038800D01FD7292300C101C10A24004E08031D2C
:10039800CF29E12180312400D101D0012300350883
:1003A800031D0800AB2B02302300C100440A86005D
:1003B800A926803119278031CF29CE01CF010230FB
:1003C80023004106031DF829C62680315830F10064
:1003D800F2014408023E86007108C03F7208C13F1E
:1003E800440886004830EE2E240820005702031DDA
:1003F800012A230023082000560203180A2A570856
:100408002300A400200056082300A300B324803151
:100418005830F100F20123002D08023E86008701C2
:100428007108C03F7208C13F2D0886004830D82E99
:100438002000520B302A50081F39031D302A230090
:100448000330A21720005106031D2E2A2400CB01D9
:10045800CB0A302A2400CB0120005208031D0800D3
:1004680050081F39023A031D080054080F390319B0
:10047800080054080F39FA0003307A0203180800FC
:10048800203023003606031D0800A2172000D41BC5
:10049800542A0127803125278031323E86005C2A84
:1004A80006278031252780312F3E860002308700BD
:1004B8000108E8006818622A6911632A6915D41BC3
:1004C800682A012780316A2A06278031870069084F
:1004D800810003305106031D8B2A690886008701B5
:1004E800811F832AD41B7C2A54080F39323E7F2A65
:1004F80054080F392F3E860002308700811469089E
:1005080086008701011569088600811708000430F4
:10051800E9066908860087016908811F9D2A860007
:100528008113860005300117CC2680318123803164
:10053800A02A86008701011704302000E906E81880
:10054800AA2A690886008701811FBF2AD41BB02AFE
:1005580054080F39323EB32A54080F392F3E86000B
:100568000230870081102B2780310530CC2680315E
:1005780081238031C02A2B27200054080F39983E48
:10058800FA000E30FB01FB3D7A08E6007B08E70025
:100598006608860067088700011008003608031DF2
:1005A800E32A3D008E01920116308F31A827803151
:1005B8008E19E02A8E15DC2A2300B601B60A360306
:1005C800031DF02A3D008E1AF02A900192011214A0
:1005D800121602302300B6003D001019121DF72A2A
:1005E8001011582480313D008E1CFD2A2000121164
:1005F80008001018121C072B8B312A238031043075
:10060800B6003D001010101A121E0C2B4C2480311D
:100618003D00101F242B121F182B7330E726803142
:10062800E40AE501812380313D001013262480313E
:100638005208031DD2035208031D242BAB2380311B
:100648003D00901A921E2A2B312480319018921C5A
:100658003B2BFF302000E0007F30E100E201E301A6
:10066800E401E40AE501812380313D00930104306F
:10067800230036020318432B2000121108003D0006
:10068800921D7E2B2000EE017B2B0F082300C90052
:10069800490C2000ED00ED0C6D0C0F392300C20051
:1006A8003D009011230049195C2B4208323E5E2B15
:1006B80042082F3E8600023087000130810642083A
:1006C800031D692BEC238031752B72302000E0006C
:1006D800C930E101E2000130E300E401E5018123D2
:1006E800803120000430EE0A6E0203187E2B3D0094
:1006F8009019492B2000121108006108003A0319CB
:100708008B2B7F3A0319A52BAA2B512D4E2E60084F
:10071800013A0319892B033A0319AA2B013A031941
:100728008A2B063A0319AA2B773A0319AA2B013AFE
:100738000319AA2B073A0319AA2B013A0319AA2B62
:10074800AA2B6008FF3A0319AA2BAA2B0800240039
:100758005008031D08000130D0005108031D08008F
:100768000130D100023023004106031DC32B2D0A9E
:100778008600870181012D0886004830D82E410B5C
:1007880008002400C8012300430A860008308701B6
:1007980081005030F000F10143080B2780314308F5
:1007A8008600043081004308860081172400C801B0
:1007B800C80A2300440A8600083081005030F0003F
:1007C800F10144080B2744088600803081000800A6
:1007D8002D302400D20023004908FD39031D1E2CAA
:1007E80049363F3909070907203EC300C4000430D1
:1007F800C406430886008701010C890C0F390D3A9D
:10080800031D1D2C5030860023004308023E84003F
:100818008501003F2000EA00013FEB006A088400E0
:100828006B0885000830EC0012001E00EC0B182C39
:100838004528E52CFD3049052000EA00043A031D4F
:1008480008006C2C24004D08031D0800D30A530827
:10085800031D0800FF30D3000800181C4A2C230091
:1008680043088600803087010106031D482C2D08A7
:10087800860084300106031D482C430886000C308E
:1008880081004308860081173D0018109012080067
:10089800121510128E1424007530CD01CD0AD30123
:1008A800E7268031E501812B24007430CD0120003A
:1008B800E0000030F3268031812380313D008E1026
:1008C8001211101D692C1011652C2400D301080089
:1008D80023002D08860000308701011B0130F3003A
:1008E8000430AD0608303606031D872C2000520858
:1008F8007F393D00960016080319842C1030852C8A
:1009080004302300B600410BAD2C5830F100F20141
:100918002D08023E860087017108C03F7208C13F5A
:10092800B3248031023023004506031DA02C2D0876
:10093800860004308701D82E7308031DA82C2D08C3
:10094800860048308701D82E2D0886000830870198
:10095800D82E2400A21BA2132300C10108000830CE
:10096800F000003023002402083003192302031882
:10097800C92C2308F0004508031DC52CC501C50A6C
:10098800C92C450BC92C0230C5007008A302031CF2
:10099800A4032D0A860087017008810058302400BE
:1009A800DB002300221CDB2CE12C97268031700809
:1009B80003190800D92C97268031700803190800FC
:1009C800DF2C02304106031DEA2C022DC101240050
:1009D8004808031D002D2300C62680315030F6003C
:1009E800F7014408023E86007608C03F7708C13FF9
:1009F800440886000C30EE2EC80108004308860023
:100A08008701413FF500F200F30173082400240236
:100A1800031D102D720823020318142D2308F50056
:100A28007508A302031CA403F401750874020318D3
:100A38002A2D20088600023087007408583E84005A
:100A4800850100088100A00AF40A192D230824044E
:100A58000319402D2300C62680315830DD26803109
:100A6800430886004408011B3C2D86004830EE2EC2
:100A7800860008308701EE2E2300C62680315030CC
:100A8800DD26803144088600192780312400A2130E
:100A980023003508031D0800AB2B5A252400D90173
:100AA8002300C0012400DA01D701080024004B30DC
:100AB800EA01E901E8000830E701EB01EC01ED008B
:100AC80023001A30BB01F40001307A2580311E3032
:100AD800F40002307A258F319527803118262300BB
:100AE800B3002400C9012300BC010800F900741DEB
:100AF800802DF00197258031F41C862DF001F00A35
:100B0800790897257908983EF5000E30F601F63DEC
:100B18007508F7007608F8007708860078088700D7
:100B2800740881000800F2002030F3007008F1001A
:100B3800F135720809070907710709070907F3075B
:100B480073088600870181137008031DB02D720891
:100B5800353E86000230B42D7208AD3E8600013065
:100B680087007308810073088600870101137308E2
:100B7800043E860001170800240049080319C92DFE
:100B8800490886008701811B0800033023003C06C2
:100B98000319BC013C0803190800023A031DE12DA2
:100BA8000230F001F00AF101F201F30118262400E5
:100BB800C90003302300BC0008003C0B080041308A
:100BC8003D02031CE92D4030EA2D3D08F900BD0225
:100BD800A0302400C2007908F80056080319F72D40
:100BE800FD2DB926803178080319002EF52DB92678
:100BF80080317808031DFB2D23003D08031D0C2EB2
:100C080040307906031D0A2E02300B2E0330BC003B
:100C1800A030F001F00AF100F2017908F300023087
:100C280018262400C9000800F600700803191F2EB2
:100C380037278031212E4027803187000108F700AF
:100C48007708031900347108F4007F307205F50045
:100C58007708023E860087017408C03F7508C13FC7
:100C6800770A86007308810077088600403081057E
:100C780077088600811577088600811770080319A0
:100C8800482E37278031492E4027870004308106B7
:100C98007708080050081F39013A031D0800500E54
:100CA800890C0339013A031D080054080319852EDD
:100CB8005403031D0800852E31270830A300A40122
:100CC80022142300A217080031278031652E570807
:100CD8002400A400200056082400A3006730A000C8
:100CE800A501A601A217080067302300A000023062
:100CF800A1000730A300C130A401A20008005208D7
:100D0800652E5108003A0319602E013A0319682E1E
:100D1800213A03196B2E013A0319782E033A031965
:100D2800832E962E080024005B0886008701230086
:100D3800200884002108850000088100A00A031902
:100D4800A10A2400DB0AF0030800083087018100AB
:100D58005030F300F4014408023E86007308C03F97
:100D68007408C13F440886000800420886008701CD
:100D7800440884000230850000088100C20AC40AC1
:100D8800F8030800440A860008308701810008003B
:100D9800E000E1016908E200FF39031D0030E300CB
:100DA800E401E40AE501080081002D0886008117A6
:100DB8000800F200F3014408023E86007208C03FB2
:100DC8007308C13F08002000E000E101E201E301EF
:100DD800E401080081004408860081170800E10149
:100DE800E201E301E401E5010800713D8500003FEF
:100DF8002300A000013FA100080054080F39353E28
:100E08008600023454080F39AD3E86000134023E94
:100E180086007008C03F7108C13F0800840071084F
:100E28000318710A8500000808000430810044088E
:100E3800860081170800F101F035F10D7007840074
:100E4800080087000108E90054080F3908006908FC
:100E580086003B30870181050800E0302300A000B0
:100E68000230A10008007608AD3E86000134F20188
:100E7800F301F400F50108007608353E86000234D7
:100E880024000D130130F7016B2787310230F70179
:100E98006B2FAB2787312300ED13EE10A127873185
:100EA800003A03195A2F23006E145C2F23006E108A
:100EB80024000D17013096278731F70001306B2782
:100EC8008731023096278731F70002306B2FF80000
:100ED8008D2F77080319732F2300ED16752F230024
:100EE800ED12ED1E7A2F22008D16080022008D12B9
:100EF800080077080319832F23006D17852F230017
:100F08006D136D1F8A2F22000D16080022000D1286
:100F180008007808013A03196D2F033A03197D2F49
:100F2800952F0800F6000C3EF20003308A3171223A
:100F38008731003A031D013400340C30F2000330CD
:100F48008A3171228731003A031D013400342100AF
:100F58000D178D120D1223008D120D1222008D1205
:100F68000D12080011108030970001302400AB07E3
:100F78000030AC3DAD3DAE3D2300EE1F080024001F
:100F88002A082E06031DD22F29082D06031DD22F4D
:100F980028082C06031DD22F27082B06031D08003E
:100FA80023006F18EF142C082B042A0429040319B2
:100FB800ED2F29082400A70723002A082400A83DAC
:100FC80023002B082400A93D23002C082400AA3D57
:100FD8000800EE130800031020000E1E0314031C63
:0E0FE800F82F22000E17080022000E1308003A
:10100200FD004E280030932288319D2F023093221A
:1010120088319D2F0430932288319D2F06309322F0
:1010220088319D2F0830F20003307122FA00FB0153
:1010320008000930F20003307122FA00FB010800B7
:101042000A30F20003307122FA00FB0108000B3073
:10105200F20003307122FA00FB0108000C30F200AA
:1010620003307122FA00FB0108000D30F200033058
:101072007122FA00FB0108000E30F20003307122E7
:10108200FA00FB0108000F30F20003307122FA006F
:10109200FB010800FA01FB0108007D0884000C3006
:1010A200040203184B2890310435323E82000800B6
:1010B2002300A030EC01ED01EE01EF0184000130CC
:1010C20085002A309031802088312030840002301F
:1010D20085005030903180208831A0308400023069
:1010E20085004830903180208831203084000330E0
:1010F20085004030903180208831A0308400033058
:10110200850040309031802088317E10200089286F
:101112000030A62088310330A620883163000130D8
:10112200A6209D31A825883123006D1C922882318A
:10113200D2228831203023003606031D92283D003A
:101142008E189228DB2088319228FC00003A03197D
:10115200B428013A0319BF28033A0319C628013AF1
:101162000319CF28DA28E222883111228831C822D5
:101172008831CF228831B7238731AB2FA52388311D
:101182001F228831B62290318628322288311323D9
:101192008831DB228831B12387314D2F9D2388315D
:1011A2001A228831AB228831DE228831FA27873130
:1011B200442F0800240059080319F028230040088E
:1011C200031DF82824005808A03E8600033087003B
:1011D2000108282188312400D80AD903F828403090
:1011E200F800A030E02188312400D900D801230082
:1011F2004008031905293C08031D05294008F00091
:10120200A03016218831C00124005A08031914297C
:1012120023003C08031D142924005A08F0005E3004
:1012220016212400DA018531C02DF10023003C088B
:10123200031D080071082400C40070082300BD00CB
:101242002400D601D60A2300BC01BC0A08002200F1
:10125200EF00B52922006F08D2218831003A031924
:1012620008006F082300BF00EE12BE01A501A6010F
:10127200A701A8012400D701D70A08000D302200D7
:101282006F06031D4829CF232400D70108003D30F3
:101292006F06031D522923000230EE162400D700E8
:1012A20008006E30F0006F08C1218831003A03193E
:1012B20008000A30F00023003E08C92722006E070A
:1012C2002300BE0008000D3022006F0603194429D6
:1012D2006E30F0006F08C1218831003A03197B2972
:1012E2006E082300A5000330A601A701A80124006F
:1012F200D700080004302400D70008000D30220077
:101302006F06031944296E30F0006F08C12188313D
:10131200003A03197B2923002808F3002708F2006A
:101322002608F1002508F0000A30F400F501F60164
:10133200F701D5277308A8007208A7007108A60054
:101342007008A50022006E082300A50701300318CB
:10135200A6070318A7070318A80708000D302200E4
:101362006F06031D08004529240057088400053034
:1013720004020318452998310435DC3E8200080036
:10138200F10030307102031C00343A30710203184C
:10139200003470088600013087007108D03E810059
:1013A2000134F1004130F0017102031CDE295B308F
:1013B20071020318DE29F001F00A70080800FA0031
:1013C2002300BB0133080319EB2933088600870188
:1013D200811B0F2A330A860087017808010203184D
:1013E200F62933088600413FF800BB0178083B022A
:1013F20003180A2A3B087A07F9008600033087009F
:101402003B08203E84000130850000088100BB0AB1
:10141200F7299527863118262300B3003B080800D8
:1014220021000E1423000E1421008E1523008E15A8
:1014320008002200971321001D10080022009717B0
:1014420021001D141D08833910389D009E171E08A7
:101452008F3930389E00FC309E059F01B7278831B6
:10146200AE2F23009F31D5278831B901B701B001D2
:10147200B1018C2288317B082400C1007A08C000A7
:10148200612288317B082400BD007A08BC008822D2
:1014920088312400D400A2228831003A0319542A48
:1014A2002300EE15562A2300EE1168228831003AF5
:1014B20003195E2A23006E15080023006E1108002E
:1014C200023093227708FB007608FA0008000A30FF
:1014D200F200033071228831003A031D01340034D6
:1014E200F300F4000530F501F435F50D890B752A8A
:1014F2007208F4070318F50A8030F4071F30F53D2F
:101502007508F1007408F000C02370080800083064
:10151200F2000330712A003093227708FB0076082C
:10152200FA000800F900013EF2000330712288310E
:10153200F8007908F20003307122F7007808F6000B
:1015420008000930F200033071228831003A031D8D
:10155200013400342400B801B90123006C122700C1
:10156200930196018B15921508002400B801B90168
:1015720023006C1EBF2AEC156C17C12AEC116C13E8
:101582008B1127009101920194019501080021001D
:101592000E1622000E1321000E1308008D302000BB
:1015A20098009901960180309700111021001114C2
:1015B2000B1708006F10EF1008002300EF106F14D4
:1015C200080021008D130023883105238831210072
:1015D2008E1423008E106E126E1321008E160730A9
:1015E20095008B17FC3099000A238831003A0319C1
:1015F200FD2A2300ED1408002300ED10080022004C
:101602008D1323006F11080022008E1323006F1226
:1016120008000B30F200033071228831003A031DBA
:1016220001340034C8302400CC00903027009B00E5
:101632002A23883164302400BA00BB010A2388318E
:10164200003A0319272B2300ED1408002300ED10A4
:101652000800210012113D009301900198010E3003
:10166200F1009930F000F2017008860071088700DD
:101672008101F00A0319F10A0230F20A7202031C14
:10168200352B16303D00A8278831F301730809076E
:101692000907203E860000308701C03FC13FC23F9C
:1016A200C33F0C30F30A7302031C472B3D000E1795
:1016B20096010E120E1390112300A2012400A20122
:1016C200A301A4013D0090195C2B01302400D0003D
:1016D200D100CE01CF01CD01F3017308AD3E8600EA
:1016E2000130870081017308353E86000230870091
:1016F200810173082F3E860081017308323E860005
:1017020003308101F30A7302031C6E2B283023007D
:10171200AD0016303D0098002000A3015030A20019
:101722000830A1000430A000A0172300C801240043
:10173200D3012300B60108008B1227009B013D0054
:101742008E148E1111120800163020009500C83038
:101752002400CC008B166430DD01BA00BB01080006
:1017620020009212210092160B17080021000E157C
:1017720023000E1121008E1323008E13052B7108F6
:101782002300920070089100151315140000000048
:1017920023001408F1001308F000080023003F089A
:1017A200413A0319F32B033A0319052C013A0319A1
:1017B200172C063A0319212C0A3A03193D2C1D3A1B
:1017C2000319BC2C013A0319D82C073A03192D2D01
:1017D200013A0319442D033A03195B2D013A031907
:1017E200682D8C2DEE1A032C3E0B012C3E081F2671
:1017F200883173082300DF007408752788318F2D24
:101802000130E12D0230E12DEE1A152C7B266C08F9
:101812002300D00020006D082300D10020006E08B4
:101822002300D2009231362A0230E12DEE1E742CB2
:10183200B22788310318BA2C903104356E3E8200EB
:101842000C303E0203183B2CEE1A302C3E080120CD
:1018520088317A08DF007B08752788318F2D2608AA
:101862002000E100230025082000E00023003E08BC
:10187200903199280130E12DEE1A432C34086E275D
:1018820088318F2D2508B40008000310EE1B0314C5
:10189200642788318F2D0310EE19031464278831D1
:1018A2008F2D03106E190314642788318F2D0310B6
:1018B2006E180314642788318F2D1C2688316E27F9
:1018C2008831EE0A8F2D2100EA01EB01EC01ED01D6
:1018D200EE01EE0A8F2D0310ED18031464278831F0
:1018E2008F2D0130E12DB22788310318722C9031EF
:1018F20004355C3E820028082704260425040319C7
:10190200852C2300EE1708002300EE130800280898
:101912002704260425040319912C2300EE15080040
:101922002300EE11080028082704260425040319C1
:101932009D2C23006E15080023006E110800280854
:101942002704260425040319A92C23006E14080079
:1019520023006E1008002508622F28082704260499
:1019620025040319B72C2300ED1408002300ED1001
:1019720008000130E12DEE1ACF2C2C082100ED00D9
:1019820023002B082100EC0023002A082100EB0091
:10199200230029082100EA00EE018F2D2808AC005F
:1019A2002708AB002608AA002508A9000800EE1A9D
:1019B2002B2DA9268831003A0319E12C0130E22CA3
:1019C2000030EB0076268831003A031DEA2CE30151
:1019D200EC2C0230E300E4016308EB046F1AF32CF1
:1019E200E501F52C0430E500E6016508EB04B526B7
:1019F2008831003A031D002D2300E701032D083032
:101A02002300E700E8016708EB04112D23006B16A1
:101A12001D2D2300EB161D2D30302300EB041D2D50
:101A220024005C08013A0319072D033A03190A2D11
:101A3200013A03190D2D1D2D2300ED1B222DE90165
:101A4200242D8030E900EA016908EB046B086E2757
:101A520088318F2D0230E12DEE1A3B2D352788314A
:101A62007308ED007208EC007108EB007008EA00E0
:101A7200EE018F2D2808F3002708F2002608F10056
:101A82002508F000BB2F3E080319592D03303E02F2
:101A92000318592DEE1A542D3E084B2788316E2714
:101AA2008831EE0A8F2D2508F7003E0887316B2F0B
:101AB2000130E12DEE1A662D21000230ED01EC001D
:101AC2000130EB00EA01EE018F2D0230E12DEE1A1A
:101AD2007C2D24002A082100ED0024002908210081
:101AE200EC00240028082100EB0024002708210034
:101AF200EA00EE018F2D28082400AA0023002708FF
:101B02002400A900230026082400A8002300250899
:101B12002400A70008000030E12D0800EF01A227F1
:101B2200883140308101EF0A6F02031C902D23009F
:101B32003F082500A0002100EF01EF0A6E080319FB
:101B4200AB2D23003E082000EE00A130062688318E
:101B52002100EF07A22788313D308100EF0A6D088E
:101B62002000EB0021006C082000EA0021006B0835
:101B72002000E90021006A082000E8000A30EC0099
:101B8200ED0121006F08A03EBC2688312100EF0143
:101B9200A227883101080319D32D4030EF0A6F02C2
:101BA200031CC92DA2270D308100EF0A6F08A03E49
:101BB20086000A3081006F08013E2300C000080041
:101BC2002100EA0045302500A0005230A100A20009
:101BD2002030A30021006A082000EE00A43006266F
:101BE2008831013A0D30031DFE2D2500A5000A3073
:101BF200A60007302300C00008002500A6000A3016
:101C0200A70008302300C0000800EF00D8302100F0
:101C1200E0009830E10020006E082100E200E301BC
:101C220020006F0895310D2588310A3020006E02A0
:101C3200031C01340234230032080800F600372E58
:101C420001304E2688311D0883391C382F2E23007F
:101C520032084E2688311D08833910389D003F2EE8
:101C620004304E2688317C309D043F2E7608003A9F
:101C72000319212E013A0319282E312E2730F5009F
:101C8200F50B412E003221009D149D18462E1C0892
:101C9200F400F3011B08F3040800F000612EF101C7
:101CA2005F2EF101F10A572E0230F10003305B2E54
:101CB2000330F100F2006B2EF101F10AF2016B2EFA
:101CC200700884000530040203186B2E9831043525
:101CD200E63E820022001708FC39710497002100B9
:101CE2001E08FC3972049E00080002303A060319ED
:101CF20001340034A0302000E0008930E1003B30A4
:101D0200E20023003108F9003008F800982678082C
:101D12002000E3007908E4007A08E50093318A2381
:101D22006008EC006108ED006208EE000800780827
:101D3200F0007908F1008E30F201F300F4019431E1
:101D420004247008F8007108F9007208FA0008000B
:101D5200F001F00A3A030319B32E02303A060319CE
:101D6200B32EF00170080800031020000E1E0314A9
:101D72000030093D0800E50020006B082100E30067
:101D820020006A082100E200200069082100E10029
:101D9200200068082100E0008A2721006308F7007C
:101DA2006208F6006108F5006008F4009631C0266A
:101DB200883173082100E3007208E2007108E10033
:101DC2007008E000E50A6308620461046004031D10
:101DD200CD2E65088600023087008101E5032000D0
:101DE2006C08E0006D08E100890D893B8909E20079
:101DF200E3006B08E7006A08E6006908E500680886
:101E0200E4009631FF26883160082100E4008A2729
:101E12006B08F7006A08F6006908F5006808F40024
:101E22009631C026883173082000EB007208EA0060
:101E32007108E9007008E8000A3021006402031CFE
:101E4200242F0730E4073030E407650886000230AB
:101E5200870064088100E50320006B086A046904B6
:101E6200680403190800F02E2100111024002E0826
:101E7200F7002D08F6002C08F5002B08F4002100CD
:101E820011147708F3007608F2007508F10074085F
:101E9200F0000800F000F101582F0030ED1A013077
:101EA200F100602F00306D1B0130F100602F7008CF
:101EB200013A03194E2F033A0319532F602F710869
:101EC2000800F000AE2F0030093D2100EA00EB01CE
:101ED200EC01ED01EE01EE0A08002100EA00EB013F
:101EE200EC01ED01EE010800E000E101E20162080F
:101EF2002100ED00230061082100EC0023006008AE
:101F02002100EB0023005F082100EA00EE01EE0A47
:101F1200080020006C08F0006D08F100890D893B73
:101F22008909F200F30008002030F001F1000130CD
:101F3200F2004030F30002347708FB007608FA0022
:101F420008006F08A03E860002308700080091005A
:101F52009F3097007B3092000800B2000330B20538
:101F620008003E0884000930040208000F30F20025
:101F72000330712A2100111073082400AE00720888
:101F8200AD007108AC007008AB002100111408000C
:101F9200F200F10170087218F107F035F23672089A
:101FA200031DCB2F71080800F801F901FA01FB01AA
:101FB200701CE32F7408F8077508F93D7608FA3D9E
:101FC2007708FB3DF435F50DF60DF70DF336F20CFF
:101FD200F10CF00C7308720471047004031DD92F04
:101FE2007B08F3007A08F2007908F1007808F00023
:101FF20008002100921222009113971308008031E9
:102002008E2880318F2880317C2880318F28803142
:102012007C2880317D28803182288031A12880313E
:10202200842880318328803190288031962880311D
:102032007C289031A5289031AB289031B12890317D
:10204200B7289031BD289031C1289031C5289031F0
:10205200C9289031CD289031D1289031D52890319E
:10206200D928883103288831072888310B288831FC
:102072000F288831132888311A288831212888317D
:10208200282888312F288831362888313D28883100
:1020920044289D31B62D9D31EE2D9E310A2E9E3162
:1020A200132E9E310A2E9E313B2E9E314B2E9E3197
:1020B200692E9E31742E8C31462C8C314C2C8C31F5
:1020C200522C8C31582C8C315E2C8C31642C8C31FE
:1020D200642C8C316C2C8C31642C8C317C2C8C31AA
:1020E200882C8C31942C8C31A02C8C31AC2C8D31E1
:1020F2008E2D8D318E2D8C31AE2C8D318E2D640036
:1021020080010131890B812800348B31B72386305D
:1021120022009100A2309200200092122200971712
:102122001708F339083897002300C7016F12080017
:102132002000E20084000C300402031808009031F1
:1021420004351A3E820008006108FC006008FB00AA
:102152000030EE286108FC006008FB000230EE2827
:102162006108FC006008FB000430EE286108FC00F6
:102172006008FB000630EE286008FB000830DD280E
:102182006008FB000930DD286008FB000A30DD280A
:102192006008FB000B30DD286008FB000C30DD28F6
:1021A2006008FB000D30DD286008FB000E30DD28E2
:1021B2006008FB000F30DD28FC00A42190310421CF
:1021C2009031003A031D08007C08403E860003302F
:1021D20087007B089E2190312F29FD00A421903198
:1021E20004219031003A031D08007D08403E86001C
:1021F200033087007C0881007D08413E86007B0811
:102202009E2190312F29F6007208F4000530F50165
:10221200F435F50D890B09298030F4071F30F53D9F
:10222200213073020318FF34043072020318FF34A2
:102232007308031900347608860003308700750896
:10224200F1007408F0008B31C023903170088100D6
:10225200F40A0319F50AF60AF3031929F800F9003A
:102262000530FA01F935FA0D890B33298030F90767
:102272001F30FA3D2130770203180800043078023B
:10228200031808007A08F1007908F00081219031E2
:10229200023077027A08F1007908F00076088600A9
:1022A200033087000108F200F301F401031C6229E4
:1022B200F40A66219031F60AF90A0319FA0AF703B9
:1022C2004929662123001508080000308B1B0130C4
:1022D200F5008B13710823009200700891007308B7
:1022E2009400720893007408031D95160319951241
:1022F20015131512151595217508031D8B17080066
:1023020000308B1B0130F2008B1371082300920006
:102312007008910015131516151595212300151136
:102322007208031D8B170800230055309600AA304F
:102332009600951400000000080081004030F6006D
:102342001030F70003340330F2001030F300403451
:10235200B0279131F02191316008E8006108E9006D
:102362006208EA0023004A082200EB0023004B081F
:102372002200EC0023004C082200ED00422491319F
:1023820068082300CD00220069082300CE00220045
:102392006A082300CF004D08F8004E08F9004F08E4
:1023A200FA004A08FB004B08FC004C08FD005E24C2
:1023B200913178082300CA007908CB007A08CC0052
:1023C200B0279131F02160082300CA002200610881
:1023D2002300CB00220062082300CC000800600822
:1023E200F0006108F1006208F2006630F300352760
:1023F2009131E71F002AE001E101E201080000300B
:1024020067021530031966020318080060082000ED
:10241200EC00220061082000ED002200620820008A
:10242200EE00262391316F082100EC0020006E0897
:102432002100EB0020006D082100EA0020006C085A
:102442002100E9006C2769082200E30021006A08E4
:102452002200E40021006B082200E5006308E0008E
:102462006408E1006508E2000800DE01E927913115
:1024720040308101DE0A5E02031C372A3F08250034
:10248200A0003D30A100230050082000EC002300F2
:1024920051082000ED00230052082000EE00262300
:1024A20091316F082300D90020006E082300D80064
:1024B20020006D082300D70020006C082300D600FE
:1024C2005908FB005808FA005708F9005608F800A6
:1024D200E723913178082200E8007908E9007A08B8
:1024E200EA00230050082200EB00230051082200DA
:1024F200EC00230052082200ED00422491316808CA
:102502002300D000220069082300D10022006A08BB
:102512002300D20050082000E300230051082000CD
:10252200E400230052082000E500C830E001E10089
:102532004230E2008A23913160082300CA00200061
:1025420061082300CB00200062082300CC00A921EF
:1025520091314A08D3004B08D4004C08D5005308E7
:102562002000EC00230054082000ED002300550851
:102572002000EE00262391316F082300DD002000A9
:102582006E082300DC0020006D082300DB00200021
:102592006C082300DA005D08031DD92A5C08031DBC
:1025A200D92A5B08031DD92A64305A02031CE52A82
:1025B2000130D6070030D73DD83DD93D9C30DA07EF
:1025C200FF30DB3DDC3DDD3DCD302100E0009830C9
:1025D200E100230059082100E500230058082100EA
:1025E200E400230057082100E300230056082100DD
:1025F200E20023005D082100E90023005C082100BD
:10260200E80023005B082100E70023005A082100AC
:10261200E600A2300D2591312300DE01E927913138
:1026220001080319192B4030DE0A5E02031C0F2B2E
:10263200E9270D308100DE0A5E08A03E86000A30DE
:1026420081005E08013EC0000800BC2791310310E2
:10265200610D620DE8006808031D352B2000EC01B6
:10266200ED01EE01EF0108002000BC279131173087
:10267200E236E10CE00C890B392B6008E300200004
:10268200ED17EE016C082100E40020006D08210026
:10269200E50020006E082100E6008E30E701E80226
:1026A200E81F5F2B6808803A8F3E031C2F2BE7360A
:1026B200E60CE50CE40CE80F582B6C2B1830680282
:1026C20003182F2B680803196C2BE435E50DE60D72
:1026D200E70DE803632B630803197A2BE409E50984
:1026E200E609E709E40A0319E50A0319E60A0319E8
:1026F200E70A67082000EF00210066082000EE00CC
:10270200210065082000ED00210064082000EC0093
:1027120008006008FB006108FC006208FD0003106D
:102722007C0D7D0DE6006608031D982BFC2F6308C7
:10273200FB006408FC006508FD0003107C0D7D0DA4
:10274200EB006B08031DA62BFC2F6B087B3EE607F4
:102752006208EB006508EB068030EB05FF30E117FD
:10276200E417E305E4050730E501E701E801E901C3
:10277200EA00601CBE2BEF279131E236E10CE00C3F
:10278200E335E40DE50DEA0BBA2B0930EA00601CD3
:10279200CC2BEF279131E236E10CE00CE936E80C64
:1027A200E70CEA0BC82B6708F0006808F10069081B
:1027B200F2006608F3006B08F4000424700820009D
:1027C200E0007108E1007208E20008008E30FC00AF
:1027D200FF307B050319F32BFB36FA0CF90CF80CCE
:1027E200FC0AE92B7808F0007908F1007A08F20077
:1027F2007C08F300F40104247008F8007108F90061
:102802007208FA000800730803190C2C720871048C
:102812007004031D142CF001F101F2010800F30A07
:10282200F236F10CF00CFE3072050319222C102C3A
:10283200F30AF00A0319F10A0319F20AF236F10C4B
:10284200F00CFF30720503192F2C192C0230730281
:10285200031C312CF303F035F10DF20DF11F272C7F
:10286200731CF113F3367308F700F601F5017508CE
:10287200F0047608F1047708F2047408031DF217D5
:1028820008006A08690468040319492C8030EA06C2
:102892006B08F8006C08F9006D08FA006808FB0084
:1028A2006908FC006A08FD005E2478082200E8003E
:1028B2007908E9007A08EA00080078082000E000B8
:1028C2007908E1007A08E2000310610D620DE5006B
:1028D2007B08E0007C08E1007D08E2000310610D46
:1028E200620DE40065080319822C6408650264081D
:1028F20003188A2CE0006508E00219306002031C0C
:10290200892C7B08F8007C08F9007D08FA00080091
:10291200640803190800650864020318982C650806
:10292200E0006408E0021930600203180800063073
:10293200E300FA1BE317FD1B6317F917FA01FC17F3
:10294200FD01640865020318BD2CFB35FC0DFD0D6D
:10295200E403640865060319B82CE3036308073926
:102962000319B82CA62CFA36F90CF80CE50A6508FE
:1029720064060319D72CB42C650864020318D72CFB
:10298200F835F90DFA0DE503640865060319D32C31
:10299200E303630807390319D32CC12CFD36FC0C61
:1029A200FB0CE40A65086406031DCF2CE31FE22C2E
:1029B200FF30F806F906FA06F80A0319F90A0319AC
:1029C200FA0A631FEA2CF62791310319FC0A03194C
:1029D200FD0AE3017808FB077908FC3D7A08FD3D12
:1029E200FD1FFB2CF62791310319FC0A0319FD0A7E
:1029F200E301E30A7B08F0007C08F1007D08F200A5
:102A02006508F3006308F40004247008F8007108F4
:102A1200F9007208FA0008002200E800E230E10042
:102A22009B2791316B080319972E25306B060319EA
:102A32001D2DD9279131112DE601E701E001210079
:102A4200D32791319D269131031C532D2200E6019B
:102A5200E7010A30F000F10122006708F30066087E
:102A6200F200AB2691317108E7007008E600210000
:102A7200D3279131D03E2000E800FF300318003008
:102A8200E90068082200E607200069082200E73D05
:102A92002100E00A0319E10AD32791319D269131E1
:102AA20003182A2D600884006108850012002E3A5E
:102AB200031D8C2DE00A0319E10A2200E901EA0153
:102AC2002100D32791319D269131031C952DD327C7
:102AD20091312000E800E90122006A08F10069084A
:102AE200F0000A30F200F301AB26913120006808B1
:102AF2007007EA006908713DEB006A08D03E2200C7
:102B0200E900FF3020006B3D2200EA002100E00ACC
:102B12000319E10A612D2200E901EA01952D6016EF
:102B2200952DC030E004A12D9B279131003A031965
:102B3200972E6C3A0319902D193A0319922D112DE3
:102B4200601EB12D610886008701403FE200413FCF
:102B5200E300423FE400433FE5000430E107C42DB7
:102B6200610886008701403F2000E800413FE900FC
:102B720068082200E200200069082200E300E40164
:102B8200E501E10AE10A69086A04031DD02D65081E
:102B92006404630462040319E90A0319EA0AEB01F3
:102BA200EB0A6B082000E8000030E901E835E90D86
:102BB200E835E90D680784009830693D8500003FDB
:102BC200EA00013FEB00023FEC00033FED00220070
:102BD2006502031DFC2D20006C0822006402031D07
:102BE200FC2D20006B0822006302031DFC2D200037
:102BF2006A0822006202031C032E0A30EB0A6B06EB
:102C0200031DD22DC82791316A08803A20006A023A
:102C1200031D0F2E22006908200068020318152EDA
:102C220022006908EB002C2E2200E12791316A086C
:102C3200803A2000EA006908803A6A02031D242EC5
:102C420068082200690203182C2E22006B08E90092
:102C5200EA01E91BEA032200C82791316708803A9A
:102C620020006A02031D392E220066082000680235
:102C72000318442E2200E1279131E6022000690860
:102C82002200E73B472E2200E601E70166086704BF
:102C920003198D2E680886000230870020308100DB
:102CA200FF30E80AE607031CE703472E0A3020003C
:102CB200E000E101E201E30122006A0885006908FF
:102CC200840000308435850D8435850D8407983065
:102CD200853D003FF000013FF100023FF200033F5B
:102CE200F3006508F7006408F6006308F50062085F
:102CF200F400C026913173082000E7007208E60054
:102D02007108E5007008E400FF2691316008303E4A
:102D12002200EB00D9279131FF30E907031CEA03B7
:102D2200690F572E6A0A0319112D572E680886005B
:102D32000230870081010800F1003A30F00171028F
:102D42000318A92E30307102031CA92EF001F00ADB
:102D5200700C0800F401F501701CB32E7208F40720
:102D62007308F53DF235F30DF136F00C700871047D
:102D7200031DAD2E7508F1007408F0000800F8017B
:102D8200F901FA01FB01730872047104700403195A
:102D9200F62EFC01FC0AF31BD32EF035F10DF20DD9
:102DA200F30DCB2EF835F90DFA0DFB0D73087702F2
:102DB200031DE52E72087602031DE52E71087502C9
:102DC200031DE52E70087402031CF02E7008F40235
:102DD2007108F53B7208F63B7308F73B7814F3363B
:102DE200F20CF10CF00CFC0BD32E7B08F3007A08EA
:102DF200F2007908F1007808F00008006308620424
:102E02006104600403192C2FFD01FD0AE31B0E2F40
:102E1200E035E10DE20DE30D062F63086702031DA5
:102E22001C2F62086602031D1C2F61086502031D28
:102E32001C2F60086402031C262F6008E40261084C
:102E4200E53B6208E63B6308E73BE336E20CE10C54
:102E5200E00CFD0B0E2F6708E3006608E200650830
:102E6200E1006408E0000800720871047004031DA8
:102E7200422F73088600013087000030C03FC13FF7
:102E8200080072087F39F400F501F435F50D730876
:102E92008600013087007408C03F7508C13F710D7C
:102EA200710D0139F400F50173088600740881047C
:102EB2004131750881047308860001308700823031
:102EC2008107FF304131813D7F31720880393F38BF
:102ED200F200F11308008E30EE01ED00EC1F7E2FA0
:102EE200E909EA09EB09EC09E90A0319EA0A0319F3
:102EF200EB0A0319EC0AEE01EE0AFF306C05031926
:102F0200882FEC36EB0CEA0CE90CED0A7E2F6908EF
:102F1200F0006A08F1006B08F2006D08F3006E0819
:102F2200F400042470082100E9007108EA00720824
:102F3200EB000800210061082000E9002100600880
:102F42002000E8002100E00A0319E10A20006808D5
:102F520084006908850000082200EB0008004A0886
:102F62002200E00023004B082200E10023004C086D
:102F72002200E20008006C082100E00020006D0839
:102F82002100E10020006E082100E20008006B0829
:102F92002000E800E901E81BE9036908803AEA0039
:102FA200220008006008840061088500000808000B
:102FB20068088600023087006B088100E80A080072
:102FC2006B082000E800E901E81BE9032200080081
:102FD2005E08A03E86000230870008006308E7070B
:102FE2006408E83D6508E93D0800FF30FB06FC0681
:102FF200FD06FB0A0800E001E101E20108000134DC
:103002000034003400340A340034003400346434B0
:10301200003400340034E834033400340034103413
:10302200273400340034A034863401340034403470
:1030320042340F34003480349634983400340034EF
:10304200E134F53405340034CA349A343B34C9349B
:103052009834733498349D34983430349834093425
:10306200023443340034023401340034C034323484
:10307200093404340034003401340234023401349B
:10308200003405342434003410340134043424343C
:103092000234023405342434063400340134053455
:1030A20024340134003401340734053481340334C8
:1030B2000834003402340934043401340034023454
:1030C2000A34003400340034073405340234023444
:1030D200403400340034073405348234023440343E
:1030E200003400342A34033464340034613400344C
:1030F2006E3400346A340034753400346C34003475
:10310200693400346F34003464340034653400347C
:103112007334003469340034673400346E3400345C
:1031220073340034203400344C3400344C340034D2
:10313200433400342E3400341A340334423400341D
:103142006534003461340034673400346C34003444
:103152006534003420340034503400346F34003489
:10316200773400346534003472340034123401345C
:10317200003402340234003400340834D8340434C5
:103182009C34F1340034013401340234003401340B
:10319200043403340934043425346C3475342E3445
:1031A200253432342E3432346C34753400342534C0
:1031B20031347534003489312B2989313F298931E1
:1031C200642989317F298931AF298E31502E8E3180
:0E31D200522E8E31552E8E31592E8E315D2E9D
:1039640030083104031DC32CB7011030370203188B
:10397400CD2C00308E311F269C31C2279C31B70AD2
:10398400B72C00308E311F269C31C2279C31103059
:10399400B70A37060319B701D8249C310E259C3188
:1039A40023003908031DB90B0800CF2EF401F501DB
:1039B400F601F701F8017835203E860003308700D0
:1039C400403FF000413FF1007008F4077108F53DF5
:1039D4000030F63DF73D1030F80A7802031CDD2C68
:1039E400F41DFA2C1030F4070030F53DF63DF73D98
:1039F4007408F0007508F1007608F2007708F30007
:103A04000430F336F20CF10CF00C890B032D710821
:103A1400B1007008B00008006B2D6F1E142D033028
:103A2400BA000800310824003D02031D1B2DDB27CA
:103A34009C31031C262D05302300B80A3802031CD0
:103A440008000230BA007A2D230031082400410214
:103A5400031D302D2300300824004002031C3E2D9A
:103A640023000530B8012400D50A5502031C0800C0
:103A74002300BA01BA0A9F2DD5012300B80108001A
:103A84006F1A112D310824003D02031D4B2DDB2735
:103A94009C3103181D2D4008183EF1000030413DB3
:103AA400F20023003102031D592D71083002031C5A
:103AB4005E2DD5279C31A62DB80108006F1E080085
:103AC4000330BA005D2D6F1A0800D5270800BA012B
:103AD4005D2D3A08003A03190F2D013A0319422DBE
:103AE400033A0319602D013A0319652D692D080065
:103AF4006E1D7F2D013088259C3123003908031D5C
:103B04000800240054082300B9000800F0005730CE
:103B14002400DE004130DF005230E0004E30E1008E
:103B24002030E2007008303EE3000D30E4000A303B
:103B3400E5000830E601DA000800EE1DA32D003090
:103B440088252300B9010800B90108008D279C319C
:103B540024005D088400093004020318CA2D903142
:103B640004354A3E82000800ED269C3179279C31B9
:103B7400003A0319C02D2300EF15C22D2300EF11C5
:103B8400D9269C31003A0319D12D2300EF1DCE2DE7
:103B940008302400DD0008002400DC01E52E2300A9
:103BA400EC1DDE2DEF1DDA2D02302400DD000800AF
:103BB4002400DD01DD0A08006E1F6E1EE42D0330B3
:103BC4002400EC2DED1CCA2D65279C31003A031905
:103BD400CA2D0230DC00D02D2300EC1F042E7B26DE
:103BE4009C312300EC1D012ED4269C31003A03198C
:103BF400042E2400DC01DC0AE5269C31042E083066
:103C04002400DD00D9269C31003A03190800CE2D8A
:103C14002300EC1F08007B269C312300EC190800CC
:103C2400CA2D23006E1B6E1A1A2ECF269C31312EFC
:103C3400EC1F312E7B269C31D4269C31003A03198B
:103C44002D2E05302400DD000130C1269C310330C7
:103C54002400C600C70123279C31A3279C312300DD
:103C64006D1D0800B2249C313408031DB40B0800F8
:103C7400CF2E2300EC1F0800CD279C31031D080024
:103C84000030C12606302400DD001E30C600C70106
:103C9400080023006D1D522EFF302400C607C73DC7
:103CA40023006E1A5A2ECF2604302400DD000800AB
:103CB400240046084704031D08000130C1260730CC
:103CC4002400DD00A930C6000130C700080023002D
:103CD400EC1F0800CD279C31031D08000030C126CD
:103CE4009C31552E03308831A62063000130883181
:103CF400A628EC126C1420008C1D822E23006C105C
:103D0400F00123006C186C1F892EF001F00AEC10EE
:103D14007018EC198E2EEC146C11EC196C18942E8E
:103D24006C1F6C156C186C1F982EEC156C1C6C1B9E
:103D34009C2EEC116C136C186C172300EC1CA62E33
:103D44002400B801B90108006C19A22EEC1D08006A
:103D540024003B083902031DB12E3A083802031827
:103D64000800B80A0319B90A3B083906031DBC2E1A
:103D74003A083806031D08002300EC160800F0007A
:103D840070080319CA2E22008E1221008E12080018
:103D940022008E1621008E16080008302400DD0053
:103DA40000300A2F00302300EC1A013008002100F3
:103DB400111000302300EF180130F000EF10210043
:103DC40011147008080003302400DD0001300A27B4
:103DD40002308831A6282400BE01BF01F701033058
:103DE4008E311F269C3173082400BE077408BF3D22
:103DF4000430F70A7702031CF12EBE1C052F043091
:103E0400BE070318BF0ABF36BE0CBF36BE0C08007F
:103E1400F000700803191C2F2300B4012400C6010C
:103E2400C70123006D145D279C31003A03191B2F31
:103E3400612FBE2F23006D108B3100239C318B31F9
:103E4400052B23004708031D332F5D279C31003ABF
:103E54000319332F23006F1D332F0130C7000630A1
:103E6400C60023004608031DC60B0800512F8B31E2
:103E740005230330C7000630C60008005D279C31C7
:103E8400003A03194E2F61279C312730F000F00BC4
:103E9400492F00328B3100232300C7010800470853
:103EA400013A0319402F033A0319392F013A031930
:103EB4004E2F5C2F08002200151C013400348E178D
:103EC40023006F16080071279C317B0824003F02F1
:103ED400031D6E2F7A083E02031C013400340630A1
:103EE4008A3193227708FB007608FA0008008527B8
:103EF4009C317B0824003F02031D822F7A083E0276
:103F040003180134003404308A3193227708FB000B
:103F14007608FA0008002300EC136D11ED1D08006B
:103F2400ED112400CA0A4A080339031D9B2F2300FC
:103F3400EC172400CC0B0800C830CC0023006D150E
:103F440008006D1620000D1FA92F23006D122300F9
:103F54006D1AEE1CB62FED1BB62F6E1CB42F02305B
:103F640088259C312300ED176D1EEE18BA2FED1332
:103F7400EE106D1AEE1408008D1723006F1508005B
:103F840023003735203E8600033087007308C03F86
:103F94007408C13F080001302400C6020030C73B4A
:103FA400460847040800BA012400D5012300B801DB
:103FB40008002300300824003C0208000334513474
:103FC4000234DC340134573401341F341E340134D8
:103FD4000134003401340134013400340034003439
:103FE400003400340034003400340034003400342D
:0C3FF40000340034003400340034003489
:020000040001F9
:04000E0024CFCDDB53
:00000001FF
